:1000000000000220250200005B0200005D020000EB
:100010005F0200006102000063020000590200005C
:100020005902000059020000590200006502000058
:100030006702000059020000690200006B02000024
:100040006D0200006F0200007102000073020000E8
:100050007502000077020000790200007B020000B8
:100060007D0200007F020000810200008302000088
:100070008502000087020000890200008B02000058
:100080008D0200008F020000910200009302000028
:100090009502000097020000990200009B020000F8
:1000A0009D0200009F020000A1020000A3020000C8
:1000B000A5020000A7020000A9020000AB02000098
:1000C000AD020000AF020000B1020000B302000068
:1000D000B5020000B7020000B902000000000000F5
:1000E0000000000000000000000000000000000010
:1000F0000000000000000000000000000000000000
:1001000010B5054C237833B9044810B10448AFF357
:1001100000800121217010BD6C0000200000000053
:10012000AC03000008B5064B1BB106480649AFF307
:1001300000800648016811B1054A02B1904708BD28
:1001400000000000AC030000700000206C000020E4
:1001500000000000154B002B08BF134B9D46A3F574
:10016000803A00218B460F461348144A121A00F0B9
:1001700003F90F4B002B00D098470E4B002B00D0FB
:1001800098470020002104460D4600200C4900221B
:10019000002300F095F800F0C9F82046294600F049
:1001A00011F800F097F800BF0000080000000220DE
:1001B00000000000000000006C000020880000200B
:1001C0000103000000B548F2FC13C0F6E07383B0F1
:1001D0001C68684600F014F8200E102800D0FEE7D6
:1001E0009DF801100329FAD148F2C003C4F20C03B0
:1001F0001A6822F0500444F010001860EFE700BFC6
:100200004FF6D073CEF20F031A6902F03F0101706E
:100210009A69DB6902F0F001C3F3031241EA0203B9
:1002200043707047074880470749084A084B9B1AA4
:1002300040F30580043BC858D0503FF7FBAF05485A
:1002400000470000BD020000B803000000000020CD
:100250006C00002055010000FEE7FEE7FEE7FEE728
:10026000FEE7FEE7FEE7FEE7FEE7FEE7FEE7FEE766
:10027000FEE7FEE7FEE7FEE7FEE7FEE7FEE7FEE756
:10028000FEE7FEE7FEE7FEE7FEE7FEE7FEE7FEE746
:10029000FEE7FEE7FEE7FEE7FEE7FEE7FEE7FEE736
:1002A000FEE7FEE7FEE7FEE7FEE7FEE7FEE7FEE726
:1002B000FEE7FEE7FEE7FEE7FEE700BF704700BF90
:1002C00010B5034C14B1AFF3008010BD204610BD33
:1002D0000000000008B5084B04461BB10021AFF335
:1002E000008001E000F00CF804480068816A01B168
:1002F0008847204600F048F800000000A8030000EE
:1003000070B5084B084C0025E01A841003EB8406F6
:10031000043D1CB172599047013CF9E7BDE87040BB
:1003200000F03AB8680000206C00002038B50E4D8F
:100330000E4B0024E81A8510AC4205D00B4951F849
:10034000242090470134F7E700F020F80849094AD3
:10035000541AA5100024AC4205D0054B53F82400D4
:1003600080470134F7E738BD6400002064000020B6
:10037000640000206800002082180346934202D0E7
:1003800003F8011BFAE77047FEE700BFF8B500BFAE
:10039000F8BC08BC9E467047F8B500BFF8BC08BC66
:1003A0009E4670474300000000000020000000004F
:0803B000A4FDFF7F0100000025
:1003B8000000000000000000000000000000000035
:1003C8000000000000000000000000000000000025
:1003D800A40300000000000000000000000000006E
:1003E8000000000000000000000000000000000005
:1003F80000000000000000000000000000000000F5
:1004080000000000000000000000000000000000E4
:0C041800000000002501000001010000B0
:0400000300000225D2
:00000001FF
