:1000000000000220590200008F020000910200004F
:100010009302000095020000970200008D0200008C
:100020008D0200008D0200008D0200009902000088
:100030009B0200008D0200009D0200009F02000054
:10004000A1020000A3020000C5010000A7020000F9
:10005000A9020000AB020000AD020000AF020000E8
:10006000B1020000B3020000B5020000B7020000B8
:10007000B9020000BB020000BD020000BF02000088
:10008000C1020000C3020000C5020000C702000058
:10009000C9020000CB020000CD020000CF02000028
:1000A000D1020000D3020000D5020000D7020000F8
:1000B000D9020000DB020000DD020000DF020000C8
:1000C000E1020000E3020000E5020000E702000098
:1000D000E9020000EB020000ED0200000000000059
:1000E0000000000000000000000000000000000010
:1000F0000000000000000000000000000000000000
:1001000010B5054C237833B9044810B10448AFF357
:1001100000800121217010BD6C0000200000000053
:10012000E003000008B5064B1BB106480649AFF3D3
:1001300000800648016811B1054A02B1904708BD28
:1001400000000000E0030000700000206C000020B0
:1001500000000000154B002B08BF134B9D46A3F574
:10016000803A00218B460F461348144A121A00F0B9
:100170001DF90F4B002B00D098470E4B002B00D0E1
:1001800098470020002104460D4600200C4900221B
:10019000002300F0AFF800F0E3F82046294600F015
:1001A0001FF800F0B1F800BF0000080000000220B6
:1001B00000000000000000006C000020880000200B
:1001C0003503000000224FF4C043C4F20102C4F220
:1001D000000301214FF4007091619861704700BFE6
:1001E00000B548F2FC13C0F6E07383B01C686846A3
:1001F00000F020F8200E10280DD00023C4F20103D7
:10020000D9684FF4614241F00104CEF200020420AB
:10021000DC601060FEE79DF801100329EDD148F283
:10022000C003C4F20C031A6822F0500444F010001A
:100230001860E2E74FF6D073CEF20F031A6902F0AE
:100240003F0101709A69DB6902F0F001C3F3031208
:1002500041EA020343707047074880470749084A4C
:10026000084B9B1A40F30580043BC858D0503FF719
:10027000FBAF054800470000F1020000EC0300005E
:10028000000000206C00002055010000FEE7FEE7A2
:10029000FEE7FEE7FEE7FEE7FEE7FEE7FEE7FEE736
:1002A000FEE7FEE7FEE7FEE7FEE7FEE7FEE7FEE726
:1002B000FEE7FEE7FEE7FEE7FEE7FEE7FEE7FEE716
:1002C000FEE7FEE7FEE7FEE7FEE7FEE7FEE7FEE706
:1002D000FEE7FEE7FEE7FEE7FEE7FEE7FEE7FEE7F6
:1002E000FEE7FEE7FEE7FEE7FEE7FEE7FEE700BF0C
:1002F000704700BF10B5034C14B1AFF3008010BDC0
:10030000204610BD0000000008B5084B04461BB194
:100310000021AFF3008001E000F00CF80448006811
:10032000816A01B18847204600F048F800000000CB
:10033000DC03000070B5084B084C0025E01A84105F
:1003400003EB8406043D1CB172599047013CF9E768
:10035000BDE8704000F03AB8680000206C00002052
:1003600038B50E4D0E4B0024E81A8510AC4205D06E
:100370000B4951F8242090470134F7E700F020F8AA
:100380000849094A541AA5100024AC4205D0054B6F
:1003900053F8240080470134F7E738BD640000209B
:1003A00064000020640000206800002082180346DA
:1003B000934202D003F8011BFAE77047FEE700BF43
:1003C000F8B500BFF8BC08BC9E467047F8B500BF42
:1003D000F8BC08BC9E4670474300000000000020A7
:0403E0000000000019
:0803E40070FDFF7F0100000025
:1003EC000000000000000000000000000000000001
:1003FC0000000000000000000000000000000000F1
:10040C00D803000000000000000000000000000005
:10041C0000000000000000000000000000000000D0
:10042C0000000000000000000000000000000000C0
:10043C0000000000000000000000000000000000B0
:0C044C000000000025010000010100007C
:04000003000002599E
:00000001FF
