:1000000000000220E50C00001B0D00001D0D00008B
:100010001F0D0000210D0000230D0000190D000030
:10002000190D0000190D0000190D0000250D00002C
:10003000270D0000190D0000290D00002B0D0000F8
:100040002D0D00002F0D00009D0B0000330D000052
:10005000350D0000370D0000390D00003B0D00008C
:100060003D0D00003F0D0000410D0000430D00005C
:10007000450D0000470D0000490D00004B0D00002C
:100080004D0D00004F0D0000510D0000530D0000FC
:10009000550D0000570D0000590D00005B0D0000CC
:1000A0005D0D00005F0D0000610D0000630D00009C
:1000B000650D0000670D0000690D00006B0D00006C
:1000C0006D0D00006F0D0000710D0000730D00003C
:1000D000750D0000770D0000790D00000000000094
:1000E0000000000000000000000000000000000010
:1000F0000000000000000000000000000000000000
:1001000010B5054C237833B9044810B10448AFF357
:1001100000800121217010BD74000020000000004B
:100120007010000008B5064B1BB106480649AFF336
:1001300000800648016811B1054A02B1904708BD28
:100140000000000070100000780000207400002003
:1001500000000000154B002B08BF134B9D46A3F574
:10016000803A00218B460F461348144A121A00F0B9
:1001700065FF0F4B002B00D098470E4B002B00D093
:1001800098470020002104460D4600200C4900221B
:10019000002300F0F7FE00F02BFF2046294600F078
:1001A0006FFD00F0F9FE00BF000008000000022013
:1001B00000000000000000007400002094000020F7
:1001C000C50F000000F00F00411E032944D8DFE8EE
:1001D00001F0301E0C024FF40043C4F20C031A6805
:1001E00012F080503AD1072070474FF40041C4F21A
:1001F0000C018B6A03F00C02082A36D00C2A36D088
:10020000042A30D0886AC10211D5092070474FF402
:100210000041C4F20C018B6A03F003000228E3D012
:10022000032824D001281ED08A6AD003EDD40120EF
:1002300070474FF40040C4F20C00C16A01F47053DF
:10024000B3F5805F0FD0B3F5005F0ED0B3F5006F4C
:100250000CBF04200520704700207047002814BF01
:1002600008200120704703207047022070470620B5
:10027000704700BF00F47810B0F5202F08B500F0EB
:100280001E8111D9B0F5A01F00F0C38037D9B0F599
:10029000C01F00F08980B0F5D01F00F09C80B0F541
:1002A000B01F5ED0002008BDB0F5802F00F00381A4
:1002B00040D9B0F5C02F00F0E980B0F5002FF1D1A2
:1002C0004FF40043C4F20C03986A00F00302022AC0
:1002D00000F07F81032A00F03481012A00F06D8153
:1002E000996A0B0C40F0918100204FF40042C4F257
:1002F0000C02916EC1F3031320FA03F008BDB0F5B0
:10030000801F00F0A580B0F5901FCBD14FF40043C3
:10031000C4F20C03986AC0F38102022A00F0338110
:10032000032A00F0EF80012A00F03181996A0B0D59
:10033000B8D0BCE0002841D0B0F5003FB2D100F009
:100340009DFD4FF40043C4F20C031A689968C2F390
:1003500082335A1CB0FBF2F001F00F0120FA01F0D9
:1003600008BD4FF40040C4F20C00836AC3F381025D
:10037000022A00F01C81032A00F0F780012A00F015
:1003800019814FF40041C4F20C01886A000D01D0BC
:1003900000F0EEFD4FF40043C4F20C031A6FC2F3F9
:1003A000011120FA01F008BD0420C0F21800FFF787
:1003B00009FF07280FD008287FF474AF00F05EFD16
:1003C0004FF40043C4F20C031A68C2F382314B1C91
:1003D000B0FBF3F008BD4FF40040C4F20C004269DA
:1003E00002F4E061B1F5007F00F0FC8040F2838010
:1003F000B1F5C06F00F00081B1F5E06F00F0F7805B
:10040000B1F5407F7FF44EAF44F24020C0F20F00C0
:1004100008BD4FF40043C4F20C03986AC0F3810294
:10042000022A00F0CD80032A00F09580012A00F016
:10043000D380996A080D01D000F09AFD4FF4004274
:10044000C4F20C02116F01F0030320FA03F008BD9F
:100450004FF40041C4F20C018A6A02F00300022842
:1004600000F0BD80032862D0012800F0AC808B6AC8
:10047000180C01D000F07CFD4FF40043C4F20C03D3
:100480009A6E02F0030120FA01F008BD4FF4004318
:10049000C4F20C03986A00F00302022A73D0032A04
:1004A00030D0012A73D0996A080C3FF4FCAEBDE845
:1004B000084000F05DBDBDE8084000F05FBC4FF4AF
:1004C0000040C4F20C00826A02F0030102297DD0D0
:1004D000032921D0012967D0836A180C01D000F0CC
:1004E00047FD4FF40041C4F20C018B6EC3F30322AD
:1004F00020FA02F008BD00294DD149F68070C0F203
:10050000D50008BD5868C20502D41B685B0078D5C9
:1005100000F034FC800808BD4268D20503D40068AE
:10052000430040F1818000F029FC8008D9E74A6847
:10053000D00502D40968490072D500F01FFC80087C
:100540009AE75868C00502D41B68590064D500F0CA
:1005500015FC8008C9E65868C00502D41B6859001C
:1005600056D500F00BFC800868E74368DA0506D42E
:100570004FF40042C4F20C0211684B0058D500F051
:10058000FDFB800806E7BDE8084000F0F5BCBDE8CB
:10059000084000F0E9BCB1F5807F7FF483AE4DF6F2
:1005A000C000C0F2A70008BD00F0DEFC99E700F033
:1005B000E3FCEFE600F0D8FCECE600F0D5FC94E6B6
:1005C00000F0DAFC3AE700F0CFFC55E700F0D4FC8D
:1005D00087E700F0D1FC88E600F0C6FC2EE700F0CB
:1005E000CBFC49E74CF6C070C0F26A0008BD46F685
:1005F0004070C0F2401008BD4FF47C50C0F2AB1008
:1006000008BD00F0BBFB400808BD00F0B1FC6CE683
:1006100000F0B4FB400811E700F0B0FB400864E6CE
:1006200000F0ACFB400827E700F0A8FB400858E7C3
:1006300000F0A4FB4008ADE630B5C0F30323044648
:10064000581E83B005280DD8DFE800F00E121723DE
:1006500035034FF47072C1F2E402C4F3043410198C
:100660008400216003B030BD4022C1F2E402F4E70F
:100670004FF40872C1F2E402EFE751200191FFF755
:10068000A1FD042801991CD04FF40072C1F2E402CC
:10069000E3E74FF43072C1F2E40201204FF4004569
:1006A000C4F20C056B6DC4F30434DB07D7D42B6D97
:1006B0001842FCD1D3E74FF44072C1F2E40210209B
:1006C000ECE7019100F048FC4FF40041C4F20C014A
:1006D0004A68012502F00F0305FA03F14FF4904236
:1006E000B0FBF1F0C0F2E81290420199CCD9782029
:1006F000A023C4F29030C4F290334FF4007205602E
:10070000C1F2E4021D60A8E710B5C0F30313013B7A
:1007100082B0042B5BD8DFE813F05C006C00B00003
:10072000DE0005000020C4F20C00436803F007025D
:10073000052A0AD8012404FA02F010F02C0F00F068
:100740002E8123F0070242F005030024C4F20C04BA
:100750004FF400406360C4F20C000268013922F4D7
:10076000E03343EA8132026000F008FB4FF490412D
:10077000C0F2E811884263680AD903F007018A1EB3
:1007800023F00703012A94BF43F0050343F0040359
:100790004DF6FF32CFF60B7242F2FF318218C0F2F3
:1007A000F4018A4200F2C18003F00700052823F01B
:1007B000070306D8012202FA00F111F02C0F40F0D5
:1007C000B18043F001030020C4F20C00436002B08A
:1007D00010BDB1FA81F14FF40043C4F20C039A68E2
:1007E000C8B2C0F11F0122F00F0241EA0200986076
:1007F000EDE70020C4F20C00436803F00702052A6D
:100800000AD8012000FA02F212F02C0F00F0BE808C
:1008100023F0070040F005030022C4F20C025360ED
:1008200051200191FFF7CEFC0428019900F0F480DB
:100830007820A0230022C4F29030C4F290330260EA
:100840001A60B1FA81F14FF40040C4F20C00436821
:10085000CAB2C2F11F0123F00F0341EA0302426052
:1008600000F08CFA4FF490420021C0F2E812C4F27A
:100870000C0190424B688BD97FE742F23042C0F2C4
:100880000A02904200F0AE804FF48663C0F210037B
:10089000984200F08D8041F23042C0F2080290424E
:1008A00095D14FF40042C4F20C02506DC30702D43C
:1008B000136D5807FCD4B1FA81F14FF40040C4F233
:1008C0000C00826ECBB2C3F11F0122F0F00242EAAB
:1008D000011383667BE74FF4A863C0F214039842C8
:1008E0003AD04FF4AA52C0F2160290427FF46FAF92
:1008F0004FF40042C4F20C02506DC30702D4136DD2
:100900005806FCD4B1FA81F14FF40040C4F20C0057
:10091000026FCBB2C3F11F0122F0300242EA011391
:10092000036754E743F003034DE74FF41051C0F25F
:10093000F40188423FF647AF03F00700052823F093
:1009400007033FF640AF012202FA00F111F02C0F2D
:1009500018BF43F0020336E74FF40042C4F20C0222
:10096000506DC30702D4136D5806FCD4B1FA81F15F
:100970004FF40040C4F20C00026FCBB2C3F11F0170
:1009800022F0030241EA0203036720E712F0130F8B
:100990003FF442AF23F0070343F004033CE710F0B9
:1009A000130F3FF4D2AE23F0070343F00403CCE669
:1009B0004FF40042C4F20C02506DC30702D4136D11
:1009C0005807FCD4B1FA81F14FF40040C4F20C0096
:1009D000826ECBB2C3F11F0122F0030241EA02038F
:1009E0008366F4E64FF40042C4F20C02506DC30774
:1009F00002D4136D5807FCD4B1FA81F14FF40040D2
:100A0000C4F20C00826ECBB2C3F11F0122F47062FB
:100A100042EA01238366DAE6019100F09DFA01992A
:100A20004FF49043B0FBF1F0C0F2E81398427FF628
:100A3000FFAE7820A0230122C4F29030C4F290339C
:100A400002601A60FDE600BFF0B4002A37D1C4008E
:100A50008E00072920D84FF00F0707FA06FC02FA8C
:100A600006F72518AE0006F1804505F5C0456E680D
:100A700026EA0C063E436E6062B9002B35D1012395
:100A800003FA01F1201846F210028300C4F20002BA
:100A900098184160F0BC7047203E4FF00F0C0CFAE4
:100AA00006FC02FA06F72518AE0006F1804505F5AA
:100AB000C045AE6826EA0C063E43AE60DCE7012680
:100AC00006FA01F6C4003BB12718BD0005F18047C6
:100AD00007F5C0452E61BBE7271846F21005BF0099
:100AE000C4F200057D196E60B2E7012202FA01F13D
:100AF0002318980000F1804202F5C0431961C9E74C
:100B000011B902234360704701214160704700BF63
:100B10000B78F0B40BB902224260CE788D780C7A53
:100B200032048F7942EA0562CE794D78224342EA57
:100B300087224C7A8F7A42EA0622002D14BF402584
:100B40000025CE7A2A43002C14BF802400240D797E
:100B50002243002F14BF202700274C793A43002E50
:100B600014BF10260026097B3243002D14BF4FF41A
:100B7000005500252A43002C14BF4FF08054002458
:100B8000002914BF0821002122430A4300214162A9
:100B900002600BB101234360F0BC704700224FF4A8
:100BA000C043C4F20102C4F2000301214FF40070FB
:100BB00091619861704700BFF0B548F21016C0F21D
:100BC000020685B0012107463046FFF735FD4FF498
:100BD000A4454FF452400121C0F20205C0F20200C8
:100BE000FFF72AFD28460121FFF726FD00200422F9
:100BF000034609210446C4F20104FFF725FF3046ED
:100C00002021FFF781FD00230A22694620468DF846
:100C100001308DF803308DF804308DF805308DF8F3
:100C200006308DF807308DF808308DF809308DF8D2
:100C30000A308DF80B308DF80C308DF800308DF8BF
:100C40000220FFF765FF2846FFF714FB4FF6FF7100
:100C5000800A884228BF0846B0FBF7F7013FE761EA
:100C6000E2684FF4614342F001000421CEF2000338
:100C7000E060196020460121FFF742FF05B0F0BD9A
:100C800000B548F2FC13C0F6E07383B01C686846F8
:100C900000F016F8200E102803D00120FFF78CFF7B
:100CA000FEE79DF801100329F7D148F2C003C4F212
:100CB0000C031A6822F0500444F010001860ECE7AE
:100CC0004FF6D073CEF20F031A6902F03F010170A4
:100CD0009A69DB6902F0F001C3F3031241EA0203EF
:100CE00043707047074880470749084A084B9B1ADA
:100CF00040F30580043BC858D0503FF7FBAF054890
:100D000000470000650F00007C100000000000207C
:100D10007400002055010000FEE7FEE7FEE7FEE755
:100D2000FEE7FEE7FEE7FEE7FEE7FEE7FEE7FEE79B
:100D3000FEE7FEE7FEE7FEE7FEE7FEE7FEE7FEE78B
:100D4000FEE7FEE7FEE7FEE7FEE7FEE7FEE7FEE77B
:100D5000FEE7FEE7FEE7FEE7FEE7FEE7FEE7FEE76B
:100D6000FEE7FEE7FEE7FEE7FEE7FEE7FEE7FEE75B
:100D7000FEE7FEE7FEE7FEE7FEE700BF4FF40043B5
:100D8000C4F20C03DA6A02F47050B0F5805F38D018
:100D9000B0F5005F32D0B0F5006F1AD0D96801F419
:100DA000E063B3F5007F3AD02ED8002B3CD148F257
:100DB000B013C0F6E073D86C44F240224FF49F4168
:100DC000C0F20F02C0F21201B0F1985F28BF0A46CC
:100DD00001E0274B1A684FF40041C4F20C010B6884
:100DE0004868C3F382314B1CB2FBF3F200F00F00F2
:100DF00022FA00F11F4B0846196070471E4802682E
:100E0000E9E74FF40042E6E7B3F5806F2BD0B3F586
:100E1000A06F1ED0B3F5407F20D00022DBE74DF657
:100E2000C002C0F2A702D6E7B3F5807FF5D148F241
:100E3000B012C0F6E072D06C4BF240514CF6C0726A
:100E4000C0F26A02C0F26401B0F1985F28BF0A469E
:100E5000C1E74FF47C52C0F2AB12BCE749F6807296
:100E6000C0F2D502B7E746F64072C0F24012B2E7D0
:100E70000400002090000020000000204FF40043F8
:100E8000C4F20C03DA6A02F47050B0F5805F2AD025
:100E9000B0F5005F24D0B0F5006F1ED0D96801F422
:100EA000E063B3F5007F2CD020D8002B2ED0B3F513
:100EB000807F24D148F2B012C0F6E072D06C4CF6BC
:100EC000C0714BF24053C0F26A01C0F26403B0F14A
:100ED000985F34BF0846184670471D4A106870472F
:100EE0001C48006870474FF400407047B3F5806FAE
:100EF00029D0B3F5A06F1CD0B3F5407F1ED00020E1
:100F000070474DF6C000C0F2A700704748F2B0121B
:100F1000C0F6E072D06C44F240214FF49F43C0F21F
:100F20000F01C0F21203B0F1985F34BF08461846B3
:100F300070474FF47C50C0F2AB10704749F6807098
:100F4000C0F2D500704746F64070C0F240107047BE
:100F5000040000200000002040F20403C2F200035D
:100F600018687047704700BF4FF40040704700BFDB
:100F70004FF47A70704700BF40F20003C2F20003E2
:100F80001868704710B5034C14B1AFF3008010BD62
:100F9000204610BD0000000008B5084B04461BB1F8
:100FA0000021AFF3008001E000F00CF80448006875
:100FB000816A01B18847204600F048F8000000002F
:100FC0006C10000070B5084B084C0025E01A841026
:100FD00003EB8406043D1CB172599047013CF9E7CC
:100FE000BDE8704000F03AB87000002074000020A6
:100FF00038B50E4D0E4B0024E81A8510AC4205D0D2
:101000000B4951F8242090470134F7E700F020F80D
:101010000849094A541AA5100024AC4205D0054BD2
:1010200053F8240080470134F7E738BD6C000020F6
:101030006C0000206C000020700000208218034625
:10104000934202D003F8011BFAE77047FEE700BFA6
:10105000F8B500BFF8BC08BC9E467047F8B500BFA5
:10106000F8BC08BC9E467047430000000800002002
:04107000000000007C
:08107400E0F0FF7F0100000025
:10107C0000800000006CDC0200000000000000009A
:10108C000000000000000000000000000000000054
:10109C0000000000000000006810000000000000CC
:1010AC000000000000000000000000000000000034
:1010BC000000000000000000000000000000000024
:1010CC000000000000000000000000000000000014
:1010DC0000000000000000000000000025010000DE
:0410EC0001010000FE
:0400000300000CE508
:00000001FF
